{
  "address": "0xe7f1725E7734CE288F8367e1Bb143E90bb3F0512",
  "abi": [
    {
      "inputs": [
        {
          "internalType": "address",
          "name": "priceFeedAddress",
          "type": "address"
        }
      ],
      "stateMutability": "nonpayable",
      "type": "constructor"
    },
    {
      "inputs": [],
      "name": "FundMe__NotOwner",
      "type": "error"
    },
    {
      "stateMutability": "payable",
      "type": "fallback"
    },
    {
      "inputs": [],
      "name": "MINIMUM_USD",
      "outputs": [
        {
          "internalType": "uint256",
          "name": "",
          "type": "uint256"
        }
      ],
      "stateMutability": "view",
      "type": "function"
    },
    {
      "inputs": [],
      "name": "cheaperWithdraw",
      "outputs": [],
      "stateMutability": "payable",
      "type": "function"
    },
    {
      "inputs": [],
      "name": "fund",
      "outputs": [],
      "stateMutability": "payable",
      "type": "function"
    },
    {
      "inputs": [
        {
          "internalType": "address",
          "name": "funder",
          "type": "address"
        }
      ],
      "name": "getAddressToAmountFunded",
      "outputs": [
        {
          "internalType": "uint256",
          "name": "",
          "type": "uint256"
        }
      ],
      "stateMutability": "view",
      "type": "function"
    },
    {
      "inputs": [
        {
          "internalType": "uint256",
          "name": "index",
          "type": "uint256"
        }
      ],
      "name": "getFunders",
      "outputs": [
        {
          "internalType": "address",
          "name": "",
          "type": "address"
        }
      ],
      "stateMutability": "view",
      "type": "function"
    },
    {
      "inputs": [],
      "name": "getOwner",
      "outputs": [
        {
          "internalType": "address",
          "name": "",
          "type": "address"
        }
      ],
      "stateMutability": "view",
      "type": "function"
    },
    {
      "inputs": [],
      "name": "getPriceFeed",
      "outputs": [
        {
          "internalType": "contract AggregatorV3Interface",
          "name": "",
          "type": "address"
        }
      ],
      "stateMutability": "view",
      "type": "function"
    },
    {
      "inputs": [],
      "name": "withdraw",
      "outputs": [],
      "stateMutability": "nonpayable",
      "type": "function"
    },
    {
      "stateMutability": "payable",
      "type": "receive"
    }
  ],
  "transactionHash": "0x377bb5914c950a26536ab69cf351090f207e0d0ede979ad590cb10ad95b1318e",
  "args": [
    "0x5FbDB2315678afecb367f032d93F642f64180aa3"
  ],
  "numDeployments": 1,
  "solcInputHash": "97062a16107e9368408f142c0b0eca4c",
  "bytecode": "0x60a06040523480156200001157600080fd5b50604051620011b2380380620011b283398181016040528101906200003791906200011d565b3373ffffffffffffffffffffffffffffffffffffffff1660808173ffffffffffffffffffffffffffffffffffffffff168152505080600260006101000a81548173ffffffffffffffffffffffffffffffffffffffff021916908373ffffffffffffffffffffffffffffffffffffffff160217905550506200014f565b600080fd5b600073ffffffffffffffffffffffffffffffffffffffff82169050919050565b6000620000e582620000b8565b9050919050565b620000f781620000d8565b81146200010357600080fd5b50565b6000815190506200011781620000ec565b92915050565b600060208284031215620001365762000135620000b3565b5b6000620001468482850162000106565b91505092915050565b6080516110326200018060003960008181610377015281816105c501528181610615015261080b01526110326000f3fe60806040526004361061007f5760003560e01c8063893d20e81161004e578063893d20e8146101545780639e87a5cd1461017f578063b60d4288146101aa578063be2693f0146101b45761008e565b80630343fb25146100985780633a7b6c74146100d55780633ccfd60b146101125780636b69a592146101295761008e565b3661008e5761008c6101be565b005b6100966101be565b005b3480156100a457600080fd5b506100bf60048036038101906100ba9190610a78565b6102e5565b6040516100cc9190610abe565b60405180910390f35b3480156100e157600080fd5b506100fc60048036038101906100f79190610b05565b61032d565b6040516101099190610b41565b60405180910390f35b34801561011e57600080fd5b50610127610375565b005b34801561013557600080fd5b5061013e6105b5565b60405161014b9190610abe565b60405180910390f35b34801561016057600080fd5b506101696105c1565b6040516101769190610b41565b60405180910390f35b34801561018b57600080fd5b506101946105e9565b6040516101a19190610bbb565b60405180910390f35b6101b26101be565b005b6101bc610613565b005b670de0b6b3a76400006101fc600260009054906101000a900473ffffffffffffffffffffffffffffffffffffffff16346108a190919063ffffffff16565b101561023d576040517f08c379a000000000000000000000000000000000000000000000000000000000815260040161023490610c33565b60405180910390fd5b6001339080600181540180825580915050600190039060005260206000200160009091909190916101000a81548173ffffffffffffffffffffffffffffffffffffffff021916908373ffffffffffffffffffffffffffffffffffffffff160217905550346000803373ffffffffffffffffffffffffffffffffffffffff1673ffffffffffffffffffffffffffffffffffffffff16815260200190815260200160002081905550565b60008060008373ffffffffffffffffffffffffffffffffffffffff1673ffffffffffffffffffffffffffffffffffffffff168152602001908152602001600020549050919050565b60006001828154811061034357610342610c53565b5b9060005260206000200160009054906101000a900473ffffffffffffffffffffffffffffffffffffffff169050919050565b7f000000000000000000000000000000000000000000000000000000000000000073ffffffffffffffffffffffffffffffffffffffff163373ffffffffffffffffffffffffffffffffffffffff16146103fa576040517f579610db00000000000000000000000000000000000000000000000000000000815260040160405180910390fd5b60005b6001805490508110156104a5576000600182815481106104205761041f610c53565b5b9060005260206000200160009054906101000a900473ffffffffffffffffffffffffffffffffffffffff16905060008060008373ffffffffffffffffffffffffffffffffffffffff1673ffffffffffffffffffffffffffffffffffffffff1681526020019081526020016000208190555050808061049d90610cb1565b9150506103fd565b50600067ffffffffffffffff8111156104c1576104c0610cf9565b5b6040519080825280602002602001820160405280156104ef5781602001602082028036833780820191505090505b506001908051906020019061050592919061096e565b5060003373ffffffffffffffffffffffffffffffffffffffff164760405161052c90610d59565b60006040518083038185875af1925050503d8060008114610569576040519150601f19603f3d011682016040523d82523d6000602084013e61056e565b606091505b50509050806105b2576040517f08c379a00000000000000000000000000000000000000000000000000000000081526004016105a990610dba565b60405180910390fd5b50565b670de0b6b3a764000081565b60007f0000000000000000000000000000000000000000000000000000000000000000905090565b6000600260009054906101000a900473ffffffffffffffffffffffffffffffffffffffff16905090565b7f000000000000000000000000000000000000000000000000000000000000000073ffffffffffffffffffffffffffffffffffffffff163373ffffffffffffffffffffffffffffffffffffffff1614610698576040517f579610db00000000000000000000000000000000000000000000000000000000815260040160405180910390fd5b6000600180548060200260200160405190810160405280929190818152602001828054801561071c57602002820191906000526020600020905b8160009054906101000a900473ffffffffffffffffffffffffffffffffffffffff1673ffffffffffffffffffffffffffffffffffffffff16815260200190600101908083116106d2575b5050505050905060005b81518110156107a657600082828151811061074457610743610c53565b5b6020026020010151905060008060008373ffffffffffffffffffffffffffffffffffffffff1673ffffffffffffffffffffffffffffffffffffffff1681526020019081526020016000208190555050808061079e90610cb1565b915050610726565b50600067ffffffffffffffff8111156107c2576107c1610cf9565b5b6040519080825280602002602001820160405280156107f05781602001602082028036833780820191505090505b506001908051906020019061080692919061096e565b5060007f000000000000000000000000000000000000000000000000000000000000000073ffffffffffffffffffffffffffffffffffffffff164760405161084d90610d59565b60006040518083038185875af1925050503d806000811461088a576040519150601f19603f3d011682016040523d82523d6000602084013e61088f565b606091505b505090508061089d57600080fd5b5050565b6000806108ad836108dd565b90506000670de0b6b3a764000085836108c69190610dda565b6108d09190610e4b565b9050809250505092915050565b6000808273ffffffffffffffffffffffffffffffffffffffff1663feaf968c6040518163ffffffff1660e01b815260040160a060405180830381865afa15801561092b573d6000803e3d6000fd5b505050506040513d601f19601f8201168201806040525081019061094f9190610f09565b5050509150506402540be400816109669190610f84565b915050919050565b8280548282559060005260206000209081019282156109e7579160200282015b828111156109e65782518260006101000a81548173ffffffffffffffffffffffffffffffffffffffff021916908373ffffffffffffffffffffffffffffffffffffffff1602179055509160200191906001019061098e565b5b5090506109f491906109f8565b5090565b5b80821115610a115760008160009055506001016109f9565b5090565b600080fd5b600073ffffffffffffffffffffffffffffffffffffffff82169050919050565b6000610a4582610a1a565b9050919050565b610a5581610a3a565b8114610a6057600080fd5b50565b600081359050610a7281610a4c565b92915050565b600060208284031215610a8e57610a8d610a15565b5b6000610a9c84828501610a63565b91505092915050565b6000819050919050565b610ab881610aa5565b82525050565b6000602082019050610ad36000830184610aaf565b92915050565b610ae281610aa5565b8114610aed57600080fd5b50565b600081359050610aff81610ad9565b92915050565b600060208284031215610b1b57610b1a610a15565b5b6000610b2984828501610af0565b91505092915050565b610b3b81610a3a565b82525050565b6000602082019050610b566000830184610b32565b92915050565b6000819050919050565b6000610b81610b7c610b7784610a1a565b610b5c565b610a1a565b9050919050565b6000610b9382610b66565b9050919050565b6000610ba582610b88565b9050919050565b610bb581610b9a565b82525050565b6000602082019050610bd06000830184610bac565b92915050565b600082825260208201905092915050565b7f596f75206e65656420746f207370656e64206d6f726520455448000000000000600082015250565b6000610c1d601a83610bd6565b9150610c2882610be7565b602082019050919050565b60006020820190508181036000830152610c4c81610c10565b9050919050565b7f4e487b7100000000000000000000000000000000000000000000000000000000600052603260045260246000fd5b7f4e487b7100000000000000000000000000000000000000000000000000000000600052601160045260246000fd5b6000610cbc82610aa5565b91507fffffffffffffffffffffffffffffffffffffffffffffffffffffffffffffffff8203610cee57610ced610c82565b5b600182019050919050565b7f4e487b7100000000000000000000000000000000000000000000000000000000600052604160045260246000fd5b600081905092915050565b50565b6000610d43600083610d28565b9150610d4e82610d33565b600082019050919050565b6000610d6482610d36565b9150819050919050565b7f63616c6c206661696c6564000000000000000000000000000000000000000000600082015250565b6000610da4600b83610bd6565b9150610daf82610d6e565b602082019050919050565b60006020820190508181036000830152610dd381610d97565b9050919050565b6000610de582610aa5565b9150610df083610aa5565b9250828202610dfe81610aa5565b91508282048414831517610e1557610e14610c82565b5b5092915050565b7f4e487b7100000000000000000000000000000000000000000000000000000000600052601260045260246000fd5b6000610e5682610aa5565b9150610e6183610aa5565b925082610e7157610e70610e1c565b5b828204905092915050565b600069ffffffffffffffffffff82169050919050565b610e9b81610e7c565b8114610ea657600080fd5b50565b600081519050610eb881610e92565b92915050565b6000819050919050565b610ed181610ebe565b8114610edc57600080fd5b50565b600081519050610eee81610ec8565b92915050565b600081519050610f0381610ad9565b92915050565b600080600080600060a08688031215610f2557610f24610a15565b5b6000610f3388828901610ea9565b9550506020610f4488828901610edf565b9450506040610f5588828901610ef4565b9350506060610f6688828901610ef4565b9250506080610f7788828901610ea9565b9150509295509295909350565b6000610f8f82610ebe565b9150610f9a83610ebe565b9250828202610fa881610ebe565b91507f80000000000000000000000000000000000000000000000000000000000000008414600084121615610fe057610fdf610c82565b5b8282058414831517610ff557610ff4610c82565b5b509291505056fea264697066735822122063ddafef6dd65ae171c9a807041db66d2e0b1475d44339b23eb925405d6f7dec64736f6c63430008110033",
  "devdoc": {
    "author": "Bami",
    "kind": "dev",
    "methods": {
      "fund()": {
        "details": "---"
      }
    },
    "title": "A contract for funding",
    "version": 1
  },
  "userdoc": {
    "kind": "user",
    "methods": {
      "fund()": {
        "notice": "THIS FUNC FUNDS THIS CONTRACT"
      }
    },
    "notice": "demo sample funding contract",
    "version": 1
  },
  "storageLayout": {
    "storage": [
      {
        "astId": 60,
        "contract": "contracts/FundMe.sol:FundMe",
        "label": "s_addressToAmountFunded",
        "offset": 0,
        "slot": "0",
        "type": "t_mapping(t_address,t_uint256)"
      },
      {
        "astId": 68,
        "contract": "contracts/FundMe.sol:FundMe",
        "label": "s_funders",
        "offset": 0,
        "slot": "1",
        "type": "t_array(t_address)dyn_storage"
      },
      {
        "astId": 73,
        "contract": "contracts/FundMe.sol:FundMe",
        "label": "s_priceFeed",
        "offset": 0,
        "slot": "2",
        "type": "t_contract(AggregatorV3Interface)45"
      }
    ],
    "types": {
      "t_address": {
        "encoding": "inplace",
        "label": "address",
        "numberOfBytes": "20"
      },
      "t_array(t_address)dyn_storage": {
        "base": "t_address",
        "encoding": "dynamic_array",
        "label": "address[]",
        "numberOfBytes": "32"
      },
      "t_contract(AggregatorV3Interface)45": {
        "encoding": "inplace",
        "label": "contract AggregatorV3Interface",
        "numberOfBytes": "20"
      },
      "t_mapping(t_address,t_uint256)": {
        "encoding": "mapping",
        "key": "t_address",
        "label": "mapping(address => uint256)",
        "numberOfBytes": "32",
        "value": "t_uint256"
      },
      "t_uint256": {
        "encoding": "inplace",
        "label": "uint256",
        "numberOfBytes": "32"
      }
    }
  }
}